:100000000C943E000C945B000C945B000C945B0021
:100010000C945B000C945B000C945B000C945B00F4
:100020000C945B000C945B000C945B000C945B00E4
:100030000C945B000C9423020C945B000C945B000A
:100040000C945B000C945B000C945B000C945B00C4
:100050000C945B000C945B000C945B000C945B00B4
:100060000C940B020C945B000C945B000C945B00F2
:100070000C945B000C945B000C945B0011241FBE7D
:10008000CFEFD4E0DEBFCDBF11E0A0E0B1E0ECEDFA
:10009000F4E002C005900D92A830B107D9F721E035
:1000A000A8E0B1E001C01D92AF30B207E1F70E94B5
:1000B00077010C946C020C94000031E001C0330F06
:1000C0006A95EAF7E8E0F1E040E051E09291292FEB
:1000D000282392130AC03BB994E09A95F1F700C027
:1000E0001BB894E09A95F1F70AC03BB992E09A9553
:1000F000F1F700001BB895E09A95F1F70000E417BE
:10010000F50721F708951F93CF93DF93162FD42F70
:10011000C22F622F0E945D006C2F812F0E945D0014
:100120006C2F8D2F0E945D00DF91CF911F9108955C
:100130009F92AF92BF92CF92DF92EF92FF920F9376
:100140001F93CF93DF93E62EF72E082F192FF894E5
:1001500080910E01813039F048F0823009F09AC068
:1001600071113AC097C0711179C094C0772309F416
:1001700091C0C0E0D0E0C72ED12C560183E0A81A70
:10018000B108E1E0CE1AD108C017D107DCF4CA15D6
:10019000DB053CF42E2D40E06FEF80E00E948300F1
:1001A00017C0CC15DD053CF42E2D40E06FEF8FEF2E
:1001B0000E9483000DC02E2D40E060E08FEF0E9472
:1001C000830006C02E2D40E060E080E00E948300A6
:1001D0002196CF15C8F25EC00F2EF0E7DF2EF02D6E
:1001E000C0E0D0E0C12C580183E0A81AB1080F2E5E
:1001F000FCE19F2EF02DC017D10724F5CA15DB05B1
:100200003CF42E2D40E060E080E00E94830020C09E
:10021000033011056CF0C394CC9C802D1124899D72
:10022000802D11242E2D482F682F0E94830010C08E
:100230002E2D4D2D6D2D8D2D0E9483006894CC2484
:10024000C2F806C02E2D40E060E080E00E948300EE
:100250002196E0E7DE0ECF1570F21CC0C0E0D0E0C2
:100260000F2EF8E0CF2EF1E0DF2EF02DC017D107D2
:1002700044F4F6014281618180812E2D0E94830029
:1002800006C02E2D40E060E080E00E9483002196B1
:10029000CF1560F37894DF91CF911F910F91FF906C
:1002A000EF90DF90CF90BF90AF909F900895809394
:1002B0000E0180910E01813049F4EFE6F0E080817B
:1002C000826080838FEF809309010895EFE6F0E06C
:1002D00080818D7F80830895289A88E78A95F1F739
:1002E0002898EAE7F0E08081806480830895CF93C6
:1002F000DF93CDB7DEB7A0970FB6F894DEBF0FBE81
:10030000CDBFFE01319680E090E061E070E048E012
:100310005AB19B01082E02C0220F331F0A94E2F744
:10032000252B2AB980834183138212820196349649
:100330008830910569F7209AEAE7F0E080818E68BD
:100340008083ECE7F0E080818066808389E798E035
:100350009093890080938800E1E8F0E080818C60D0
:100360008083789481E00E9457010E946C010F2ED7
:10037000F9E0AF2EF02DBB24B394912CCE01019661
:100380007C01C12CD12C80910C0190910D01892B05
:10039000D1F310920D0110920C0180910B018A9DF6
:1003A000012D1124801B8695080F02950F7010E017
:1003B0000E946C01F70190910E018B2D22813381F7
:1003C0002017310709F4892D811106C08B2D91303A
:1003D00009F0892D882399F013830283F601EE0F2B
:1003E000FF1FEE0FFF1FA1E0B0E0AC0FBD1FEA0F33
:1003F000FB1F60817181828193810E949800BFEF11
:10040000CB1ADB0A84E0E80EF11C98E0C916D1048F
:1004100009F0B9CFB3CF1F920F920FB60F921124EC
:100420008F939F9381E090E090930D0180930C0156
:100430008091790080930B019F918F910F900FBE57
:100440000F901F9018951F920F920FB60F921124C4
:100450008F93EF93FF93809108018F3F79F4809100
:100460000A01882331F0E8E0F1E082818150828343
:1004700005C0E8E0F1E081818F5F8183809109010F
:100480008F3F79F480910801882331F0E8E0F1E0B2
:1004900080818150808305C0E8E0F1E082818F5F38
:1004A000828380910A018F3F79F48091090188232A
:1004B00031F0E8E0F1E081818150818305C0E8E01E
:1004C000F1E080818F5F8083FF91EF918F910F909A
:0C04D0000FBE0F901F901895F894FFCFFE
:0804DC00010204081020408019
:00000001FF
